:020000040800F2
:10000000E06B012059020008430300083B0300088D
:100010003F03000835030008E10400080000000069
:10002000000000000000000000000000C101000806
:10003000390300080000000005020008450300081D
:1000400073020008730200087302000873020008BC
:1000500073020008730200087302000873020008AC
:10006000730200087302000873020008730200089C
:10007000730200087302000873020008730200088C
:10008000730200087302000873020008730200087C
:10009000730200087302000873020008730200086C
:1000A000730200087302000873020008730200085C
:1000B00009040008730200087302000873020008B4
:1000C000730200087302000873020008730200083C
:1000D0007302000831040008730200088904000854
:1000E000730200087302000873020008730200081C
:1000F000730200087302000873020008730200080C
:1001000073020008730200087302000873020008FB
:1001100073020008730200087302000873020008EB
:1001200073020008730200087302000873020008DB
:1001300073020008730200087302000873020008CB
:1001400073020008730200087302000873020008BB
:100150000000000073020008730200087302000828
:100160007302000873020008000000000000000095
:100170000000000000000000730200087302000885
:1001800073020008000000007302000873020008F8
:10019000000000000000000000000000000000005F
:1001A0007302000873020008DFF810D000F0B0F806
:1001B00000480047C10B0008AFF30080E06B01204E
:1001C000224B19680868B0E8F00F80F30988BFF384
:1001D0006F8F4FF0000080F311884EF00D0E7047C6
:1001E0000000000006480068006880F3088862B6D6
:1001F00061B6BFF34F8FBFF36F8F00DF00BF00BF4B
:1002000008ED00E0EFF30980BFF36F8F0F4B1A6822
:1002100020E9F00F106008B54FF0200080F311883E
:10022000BFF34F8FBFF36F8F02F0B0FD4FF00000B0
:1002300080F31188BDE8084019680868B0E8F00F3D
:1002400080F30988BFF36F8F704700BF3C00002028
:10025000EFF30580704700000648804706480047D6
:10026000FEE7FEE7FEE7FEE7FEE7FEE7FEE7FEE766
:10027000FEE7FEE779030008A901000840EA010350
:100280009B0703D009E008C9121F08C0042AFAD24C
:1002900003E011F8013B00F8013B521EF9D2704710
:1002A000D2B201E000F8012B491EFBD270470022B8
:1002B000F6E710B513460A4604461946FFF7F0FF65
:1002C000204610BD421C10F8011B0029FBD1801AEA
:1002D0007047034611F8012B00F8012B002AF9D1D1
:1002E0001846704730B50B460146002020220124F5
:1002F00009E021FA02F59D4205D303FA02F5491BF4
:1003000004FA02F52844151EA2F10102F1DC30BD09
:10031000064C074D06E0E06840F0010394E8070052
:1003200098471034AC42F6D3FFF742FF983C0008E0
:10033000B83C000800BFFEE7704700BFFEE700BF03
:10034000FEE7704710B500BF202080F31188BFF38F
:100350004F8FBFF36F8F00BF03F074F918B14FF0E8
:1003600080500449086000BF002080F3118800BF5E
:1003700010BD000004ED00E010B51E48006840F01C
:1003800001001C490860084640681B49084019499B
:100390004860084600681949084016490860084640
:1003A000006820F48020086008464068144908402E
:1003B000104948600846006820F0A05008600020FE
:1003C000C8624FF47F00886000200A4980310860CD
:1003D0000848D0F8900020F080500649903108601D
:1003E0004FF48000091D08600648091D086001F0EF
:1003F000ABFE10BD001002400C00FFE0FFFFF6FE58
:10040000FFFF00DF1030002010B505480068401CD9
:10041000034908600121880701F04EFF10BD00006C
:100420003400002010B5044600F094FB10BD00001D
:100430001CB5002000901049104802F08BF8C8B19C
:100440000D490E4802F07DF80C4801F0CDFFC0B216
:10045000019000236A4601A90948006802F006FFDE
:100460000098012806D1000706490860BFF34F8FA6
:10047000BFF36F8F1CBD000005030500003801406D
:100480002400002004ED00E01CB50020009010497D
:10049000104802F05FF8C8B10D490E4802F051F85B
:1004A0000C4801F0A1FFC0B2019000236A4601A9E7
:1004B0000948006802F0DAFE0098012806D100071A
:1004C00006490860BFF34F8FBFF36F8F1CBD00005C
:1004D00005030500004800402400002004ED00E072
:1004E00000BFFEE70FB4054B10B503A9044A0298FC
:1004F00000F02CF810BC5DF814FB00004508000863
:10050000C40000200FB4084B10B504A902AA039838
:1005100000F01CF8044602A9002000F0F3F8204681
:1005200010BC5DF814FB00000507000802E008C8D5
:10053000121F08C1002AFAD170477047002001E05D
:1005400001C1121F002AFBD1704700002DE9FF4FA7
:100550008BB09A460F460546002606E025280BD0AC
:1005600052460D9990476D1C761C28780028F5D1CD
:100570000FB03046BDE8F08F0024A046012260494C
:1005800000E0044315F8013F203B02FA03F0084263
:10059000F7D128782E2817D115F8010F44F004045C
:1005A0002A280ED06FF02F022878A0F130010929F7
:1005B0000AD808EB880102EB410100EB01086D1C31
:1005C000F2E757F8048B6D1C287869283ED006DCCA
:1005D0000028CDD063280BD0642804D136E07328DE
:1005E00010D075284BD052460D999047761C85E067
:1005F00017F8040B8DF8000000208DF80100E94683
:10060000012003E057F8049B4FF0FF3061074FF0E3
:10061000000401D40AE0641C44450DDA8442FADB8C
:1006200019F804100029F6D106E0641C8442FCDBB2
:1006300019F804100029F8D1264404E019F8010B38
:1006400052460D999047641EF8D257E001CF4FF003
:100650000A0B002802DA40422D2102E0210504D5D0
:100660002B218DF82410012103E0E10705D0202182
:10067000F7E70DF1200908910CE00021F9E701CF1F
:100680004FF00A0BF9E75946FFF72CFE01F1300253
:1006900009F8012D0028F6D1ADEB090000F1200B7F
:1006A000600701D44FF00108D84502DDA8EB0B002C
:1006B00000E000208046002406E009A85246005DC4
:1006C0000D999047641C761C08988442F5DB04E081
:1006D000302052460D999047761CB8F10001A8F1E0
:1006E0000108F5DC05E019F8010B52460D99904719
:1006F000761CBBF10001ABF1010BF4DC6D1C34E79F
:10070000092801000A68531C0B6010707047000034
:1007100009E002F023F804A0FFF7E4FE642002F0F1
:100720002DF902F045F8F4E76C6564206F66660DFC
:100730000A0000007FB505460C46ADF800500020C9
:10074000ADF80200ADF804000294ADF80C008DF88D
:100750000E004FF4E06001F097FA69464FF08040D8
:1007600001F036FD4FF0804001F028FD012188079F
:1007700001F09EFD002202211C2000F0CFFA4FF074
:10078000804001F020FD7FBD10B5002003490860C6
:1007900040F2AF410920FFF7CDFF10BD340000202B
:1007A0002DE9F04707463E4656B900BF202080F3AA
:1007B0001188BFF34F8FBFF36F8F00BF00BFFEE7FD
:1007C0001B480068864201D100242DE001F0C6FFDD
:1007D00075691848D0F800801748D0F8009001F0EB
:1007E000E7FF454501D04D4501D102241CE01348E7
:1007F000854212D1B06A70B90324002007E006F1E7
:100800005801095C012901D1022402E0401C0128A1
:10081000F5DB00BF08E0022406E00948854200D06D
:100820000DB9042400E001242046BDE8F087000053
:100830003C0000204000002044000020A02B0020AD
:100840008C2B002070B504460D46E1B2054801F03E
:10085000D0FD00BF0721034801F043FE0028F9D076
:10086000204670BD0038014010B5002821D0114B42
:100870000022001F196803E0814203D80A46496834
:100880000029F9D152B11368841A9C4204D100683E
:1008900018441060104602E0506000E0186039B162
:1008A00002680B1A934203D10B681A44026049682C
:1008B000416010BDC8000020416170470161704770
:1008C00010B540F2046001F0DFF940F2056001F07C
:1008D000DBF94FF4804303221021094800F014F89B
:1008E000042303221021074800F00EF84FF4804142
:1008F0000348FFF7E1FF04210248FFF7DFFF10BDC7
:100900000010014000140140F0B5044616460025D1
:10091000002201F00F0501F0100707B13543002058
:100920001EE0012787401F40C7B122684FEA800CB4
:100930000F2707FA0CF7BA43870005FA07F73A437F
:10094000282904D1012787401F40676105E0482915
:1009500003D1012787401F4027612260471CB8B29E
:100960000828DED3082022E0012787401F40E7B196
:100970006268A0F108074FEA870C0F2707FA0CF707
:10098000BA43A0F10807BF0005FA07F73A43282940
:1009900004D1012787401F40676105E0482903D142
:1009A000012787401F4027616260471CB8B21028AA
:1009B000DAD3F0BD10B504464FF4E1306060124860
:1009C00020600020A060252020730020206160614D
:1009D000E061A06140F20530208440F2026001F045
:1009E00053F940F20E6001F04FF94FF40073032207
:1009F00018210648FFF788FF4FF480630322042183
:100A00000248FFF781FF10BD003801400008014097
:100A100010B500220121880202F09AFA0949086003
:100A20000846006820B908A0FFF75CFD00BFFEE79C
:100A30000FA0FFF757FD00210248006802F0BCFA42
:100A400010BD000024000020726563656976652092
:100A500071756575652068616E646C65722063727E
:100A600065617465206572726F72200D0A00000066
:100A70007265636569766520717565756520686165
:100A80006E646C657220637265617465207269675B
:100A90006874200D0A00000008E001F05FFE00F01D
:100AA00007F8642001F06AFF01F082FEF5E700001C
:100AB00038B51048006801F0A9FD84B216E021465F
:100AC0000DA0FFF70FFD002269460A48006802F0FA
:100AD00069FC601E84B29DF80000AA2803D10AA018
:100AE000FFF700FD02E00DA0FFF7FCFC002CE6D1B3
:100AF00038BD0000240000206974656D73203D201E
:100B000025640D0A00000000636F72726563742033
:100B10006D657373616765200D0A00006572726F01
:100B200072206D657373616765200D0A0000000017
:100B300009E001F013FE04A0FFF7D4FC642001F0EB
:100B40001DFF01F035FEF4E76C6564206F6E0D0A41
:100B50000000000010B50E48007801280BD10DA050
:100B6000FFF7C0FC4FF480410F48FFF7A7FE0020BD
:100B7000074908700AE00DA0FFF7B4FC4FF480416C
:100B80000948FFF799FE01200149087010BD0000D7
:100B90002300002074696D6572206C6564207365A4
:100BA00074200D0A000000000010014074696D659A
:100BB00072206C6564207265736574200D0A0000F4
:100BC0007CB50025242000F073F8044614B918A061
:100BD000FFF788FC4FF4407000F0F6F801F0CCFA13
:100BE000FFF76EFE2046FFF7E5FE204601F0CAFB48
:100BF0002046FFF739FEFFF70BFF14A0FFF772FC4A
:100C00001748012100238022CDE9001015A11748C3
:100C100002F0D2FC05461DB915A0FFF763FC02E007
:100C20001BA0FFF75FFC02F059F800207CBD00001C
:100C30004D656D6F727920616C6C6F636174696F63
:100C40006E206661696C65640A00000073746172ED
:100C5000745F636F6E6669672121210D0A000000D1
:100C6000000000207374617274000000C11D000850
:100C70004661696C656420746F2063726561746598
:100C8000205374617274207461736B0D0A0000004C
:100C90007375636365656420746F20637265617446
:100CA00065205374617274207461736B0D0A0000C7
:100CB000F0B50B30154D20F007010024144A0FE069
:100CC00003688B420BD38B4205D95E1A43184768E1
:100CD000C3E9006700E04368136002C004E0021D3E
:100CE00010680028ECD12046002802D1286808B1FD
:100CF0000020F0BD064A07481060074A121A22F089
:100D00000702C0E9002401202860D7E7CC000020BA
:100D1000C8000020E42B0120E04B01202DE9F04128
:100D200003460D46164600240027A04624480068C6
:100D300000F4E060B0F5A06F15D006DCB0F5407FA0
:100D400018D0B0F5806F19D110E0B0F5C06F06D0A3
:100D5000B0F5E06F12D100274FF0040815E001272D
:100D60004FF0030811E00227B8460EE003274FF0CA
:100D700001080AE004274FF0000806E04FF4A060E5
:100D800000F022F80227B84600BF00BFC7F10400F8
:100D900005FA00F4C8F104010F20C84030400443B4
:100DA00024010848C45403F01F0101208840591150
:100DB000890001F1E021C1F80001BDE8F0810000E7
:100DC0000CED00E000E400E002490143024A11603A
:100DD000704700000000FA050CED00E02DE9F0413D
:100DE00005460E462948076800202949096881F808
:100DF000590027480068001D01F0F4FB50B9244851
:100E0000006890F82C10012088402249096881432D
:100E100020480160681CD8B9D6B11F4948681C49F0
:100E2000096888601A4982680968CA6018490968AF
:100E3000091D8268516016490968091D8160164ABA
:100E4000134909684A6111460968491C11601AE092
:100E50007C190F4800684460BC4207D20C48016806
:100E6000091D0E48006801F053FC0CE008480168B9
:100E7000091D0B48006801F04BFC0A4800688442D9
:100E800001D208480460BDE8F08100005000002055
:100E90003C00002054000020A02B00204400002033
:100EA000400000206C00002010B5044601F056FC04
:100EB00031480068401C304908603048006840B93B
:100EC0002E4804600846006801280DD100F026FA7B
:100ED0000AE02B48006838B928480068C06AE16A0F
:100EE000884201D82548046026480068401C2549EE
:100EF000086008460068206494F82C10012088409F
:100F000021490968084320490860E16A01EB810131
:100F10001E4A02EB81014868A0608268E260211DE0
:100F2000826851608160E16A01EB8101174A02EB3E
:100F300081026261E16A01EB8101144A52F82110D9
:100F4000491CE26A02EB8202104B43F8221001F0C6
:100F50002FFC0B48006868B108480068C06AE16A65
:100F6000884207D24FF0805009490860BFF34F8F85
:100F7000BFF36F8F10BD00004C0000203C0000202C
:100F8000580000206800002054000020D0280020D5
:100F900004ED00E010B501F0E1FB0C48006890B9E9
:100FA0000B4801F0A5FB0B4801F0A2FB08480A49D9
:100FB000086008480949086000221021052001F056
:100FC000C7FF0249086001F0F3FB10BD8C00002050
:100FD000B42B0020C82B00208400002088000020B3
:100FE00010B516E001F0BAFB0C48C068C468201DBB
:100FF00001F0F8FA0A480068401E094908600948EB
:101000000068401E0749086001F0D2FB204600F04E
:101010005FF8044800680028E4D110BD8C2B002044
:101020004C0000204800002070B504460D46206C9E
:1010300070B1216CE0680144E160D4E9021088429B
:1010400001D32168E1602846226CE168FFF716F9B8
:1010500070BD2DE9F04104460F4615464FF00008DB
:10106000A66B206C48B9206800282CD1A06802F03B
:10107000C7FB80460020A06025E07DB93946226C80
:101080006068FFF7FBF8216C606808446060D4E991
:101090000101884217D32068606014E03946226C51
:1010A000E068FFF7EBF8216CE068411AE160216825
:1010B000E068884203D2216CA068411AE160022DE9
:1010C00001D106B1761E701CA0634046BDE8F081D8
:1010D00010B50446206B01F089FB204601F086FB29
:1010E00010BD00000146084A126812680AB90122C0
:1010F00000E000220A600A6822B9034A1268D26836
:10110000106800E0002070478400002030B54FF4E4
:101110008033174800F007042CB1C01D20F00700F1
:10112000134C041B1B1B0246124C22600024114D61
:101130006C60D018083820F007000F4C20600024A5
:101140000D4D2D686C600C4D2D682C601146441AB5
:101150004C60094C24680C60084D4C682C60084DAC
:101160004C682C604FF00044064D2C6030BD0000F0
:10117000DC2B002098000020A0000020A800002008
:10118000A4000020B400002000BFFFF729FF06489C
:1011900000680128F9D94FF0805004490860BFF376
:1011A0004F8FBFF36F8FF0E7D028002004ED00E0F1
:1011B0002DE9F04106460D4617469846069C0DB9A6
:1011C000246000E02760E66325640121204601F0E9
:1011D000F3FE84F850800020A064BDE8F0812DE982
:1011E000F05F82460F4690469B460A9E0C9C4FEA53
:1011F0008801A522206BFFF753F8A8F10100216BAD
:1012000001EB800929F0070909F0070008B901205E
:1012100000E0002050B900BF202080F31188BFF308
:101220004F8FBFF36F8F00BF00BFFEE787B1002570
:1012300007E0795D04F134004155785D00B902E0C2
:101240006D1C0A2DF5D300BF00213D20015502E0A1
:10125000002084F83400202E01D2012000E000207C
:1012600050B900BF202080F31188BFF34F8FBFF328
:101270006F8F00BF00BFFEE7202E00D31F26E6625F
:10128000A6640020E064201D01F03FFA04F118007C
:1012900001F03BFA2461C6F12000A06164620020E5
:1012A0002065606584F8580084F859005A46514614
:1012B000484600F021FC20600B9808B10B980460B0
:1012C000BDE8F09F2DE9F04706460D4617469846C3
:1012D000DDE908940DB1012000E0002050B900BF05
:1012E000202080F31188BFF34F8FBFF36F8F00BFB3
:1012F00000BFFEE7FFF74EFE2660A561C4F81C8024
:10130000C4F82090201D01F000FA2FB194F82800B5
:1013100040F0040084F82800BDE8F08710B50024F0
:1013200007E004EB84010F4A02EB810001F0E0F9D1
:10133000641C202CF5D30C4801F0DAF90B4801F0BD
:10134000D7F90B4801F0D4F90A4801F0D1F90A485D
:1013500001F0CEF9044809490860044808490860CA
:1013600010BD0000D0280020502B0020642B00204E
:10137000782B00208C2B0020A02B00204000002088
:101380004400002010B50146164800E000680368DC
:101390008B42FBD30246436813448B4204D143681B
:1013A0004C682344436001460A464B681344046872
:1013B000A34211D10C4C03682468A34208D04B68A7
:1013C0000468646823444B6003681B680B6005E095
:1013D000054B1B680B6001E003680B60884200D07E
:1013E000016010BD98000020A00000202DE9F04110
:1013F00004460D4616461F464FF0000865602461FE
:10140000B5420CD8F01BA169884202D34FF0010805
:1014100011E0211D0948006801F07AF90BE0BE4295
:1014200004D2BD4202D34FF0010804E0211D04485C
:10143000006801F06DF94046BDE8F08188000020A9
:101440008400002070B5054601F088F9A86B08B942
:10145000012400E0002401F0ABF9204670BD70B516
:10146000054601F07BF9A86BE96B884201D10124A4
:1014700000E0002401F09CF9204670BD2DE9F04702
:1014800007460C4690460026206848B3204641682F
:101490004968416000F1080142688A4202D141680E
:1014A000496841604168D1F80C9000BF204641680E
:1014B0004968416000F1080142688A4202D14168EE
:1014C000496841604168CD6806EBC60007EB8001C2
:1014D00043460122284601F0FDFA761C4D45E5D130
:1014E0003046BDE8F087F1B50098846C002654B909
:1014F00000BF202080F31188BFF34F8FBFF36F8FA1
:1015000000BF00BFFEE7A06BE16B884201D2012063
:1015100000E0002050B900BF202080F31188BFF305
:101520004F8FBFF36F8F00BF00BFFEE7A06BE16B73
:1015300088422CD294F94550002269462046FFF794
:1015400088FD0646681C60B9606A08B9012000E0A1
:101550000020D8B904F1240002F0CAF9B0B1012684
:1015600014E07F2D01D0012000E0002050B900BF21
:10157000202080F31188BFF34F8FBFF36F8F00BF20
:1015800000BFFEE7681C40B284F8450000BF30464B
:10159000F8BD000070B505460E460E480068C068EC
:1015A000C468201D01F01EF894F8280000F0040023
:1015B00028B132462946204600F0EEF805E094F8BE
:1015C000280000F0FE0084F828002046216A8847A1
:1015D00070BD00008400002070B586B094E00298D1
:1015E000002811DA03AE56B900BF202080F311881D
:1015F000BFF34F8FBFF36F8F00BF00BFFEE7D6E989
:101600000020B168904700BF029800287CDB049C52
:10161000606908B9012000E0002010B9201D00F029
:10162000E1FF01A800F0E4F8054602980A2869D213
:10163000DFE800F06805072E365806082F3700BF90
:1016400000BF00BF94F8280040F0010084F8280093
:101650000398A269811803462A462046FFF7C6FE72
:10166000A8B194F8280000F0040038B10398A269EA
:1016700081182A46204600F08FF805E094F82800EB
:1016800000F0FE0084F828002046216A88473AE0EE
:1016900000BF94F8280000F0FE0084F8280032E033
:1016A00000BF94F8280040F0010084F82800039857
:1016B000A061A06908B1012000E0002050B900BF7E
:1016C000202080F31188BFF34F8FBFF36F8F00BFCF
:1016D00000BFFEE7A06941192B462A462046FFF7C6
:1016E00085FE10E094F8280000F0020018B92046AA
:1016F00001F07CF805E094F8280000F0FE0084F882
:10170000280000E000BF00BF002202A904480068D2
:1017100001F048FE00287FF462AF06B070BD000003
:101720008C000020F8B505460C4601F027FB684602
:1017300000F05EF80646009820BB44B9B54206D8D2
:1017400002F066F931462846FFF724FF1CE03CB161
:101750000E480068006808B9012000E00020044637
:10176000A91B22460A48006801F0E2F802F050F98D
:1017700050B94FF0805007490860BFF34F8FBFF357
:101780006F8F01E002F044F9F8BD000088000020EE
:101790008C00002004ED00E070B504460D461646AE
:1017A00004E0A06905442046216A8847A0694119E0
:1017B0002B4632462046FFF719FE0028F1D170BDB6
:1017C00009480068006808B9012000E0002020B145
:1017D0004FF0FF300549086005E003480068C06825
:1017E0000068024908607047400000206C0000203B
:1017F00070B5044601F020FF0546074800688542A1
:1018000004D200F00BF80120206001E000202060ED
:1018100001480560284670BD9400002070B508E0BE
:101820000D480068C06804684FF0FF312046FFF79C
:10183000B1FE09480068006808B9012000E00020F6
:101840000028EDD004480568044800680249086093
:101850000248056070BD0000840000208800002060
:101860000246002101E0521C491C1078A528FAD03C
:10187000890888B2704700000E480068401C08B90B
:10188000012000E0002050B900BF202080F3118823
:10189000BFF34F8FBFF36F8F00BF00BFFEE700BFE6
:1018A000202080F31188BFF34F8FBFF36F8F00BFED
:1018B00000BFFEE7B800002008B500BF6846FFF78C
:1018C00011FC044620460099FFF72CFFFFF784FE29
:1018D000F4E770B5044600F041FF94F9455019E073
:1018E000A06C30B12046FFF7FEFD88B101F0A2F9EF
:1018F0000EE0606A08B9012000E0002038B904F168
:10190000240001F0F5FF18B101F094F900E003E0C4
:10191000681E45B2002DE3DC00BFFF2084F84500BF
:1019200000F046FF00F01AFF94F9445010E02069DF
:1019300008B9012000E0002048B904F1100001F0CE
:10194000D7FF08B101F076F9681E45B200E001E06A
:10195000002DECDC00BFFF2084F8440000F028FFDD
:1019600070BD70B505460E4631462846FEF7B1FCFF
:101970002846FEF7A7FC044602E020202855641CF8
:10198000092CFAD300202855281970BD2DE9F04103
:1019900004464FF0000801F0F1F95148006808B919
:1019A000FFF7B4FB4F480068204000287ED13CB3CD
:1019B00004F10800A04223D9083404F0070000B362
:1019C00004F00700C0F108002044A04216D904F03A
:1019D0000700C0F10800044404F0070008B9012022
:1019E00000E0002068B900BF202080F31188BFF319
:1019F0004F8FBFF36F8F00BF00BFFEE7002400E0F2
:101A00000024002C54D038480068844250D8374E07
:101A10003046056801E02E462D686868A04202D273
:101A200028680028F7D12E480068854240D03068E9
:101A300000F10808286830606868001B102819D970
:101A40002F1907F0070008B9012000E0002050B965
:101A500000BF202080F31188BFF34F8FBFF36F8F3B
:101A600000BF00BFFEE76868001B78606C60384606
:101A7000FFF788FC1C4968680968081A1A49086059
:101A8000084600681A490968884203D21648006867
:101A900017490860134968680968084368600020AE
:101AA000286014480068401C124900E000E008600B
:101AB00001F0AEFF08F0070008B9012000E00020A7
:101AC00050B900BF202080F31188BFF34F8FBFF3C0
:101AD0006F8F00BF00BFFEE74046BDE8F081000009
:101AE000A0000020B4000020A400002098000020E6
:101AF000A8000020AC000020001F4FF0807303609E
:101B0000001F21F001030360001F034B0360143822
:101B10000260203870470000791800082DE9F14F65
:101B20008DB000200B9051A090E8004CC068CDE92A
:101B300005BECDF810A007900FF2341ADAE9000ABA
:101B4000CDE9020A0FF2281ADAE9000ACDE9000A03
:101B50004A484068C0F381000C900C9820B10128DD
:101B600004D002284ED103E045494DE044494BE002
:101B70004248406800F48039B9F5803F26D1404B97
:101B80003E48C06A00F480300A900A98B0F5803F61
:101B900012D13A48C06AC0F30310401C089037487D
:101BA000C06AC0F30320871C112F00D114270898A6
:101BB000B3FBF0F000FB07F33048C06A00F00F0001
:101BC000401C09900998B3FBF0F300E02D4B2B4823
:101BD0004068C0F383422948406800F0005008B1D3
:101BE00042F010020D2A05D103EB4300400000EB48
:101BF000530106E00F2A01D2921C00E0521C03FBA5
:101C000002F101E01E4900BF00BF1C484068C0F35C
:101C1000031504A8465D21FA06F418484068C0F38D
:101C2000022502A8465D24FA06FC14484068C0F369
:101C3000C2251DF8056024FA06F80D9830B1012878
:101C400006D0022806D003280AD106E00B9108E04E
:101C50000B9406E0CDF82CC003E0CDF82C8000E01A
:101C600000BF00BF0B980EB0BDE8F08F0000000071
:101C700000000000010203040607080900100240EA
:101C800000127A0000093D00064A02EB9011096833
:101C900000F01F0301229A401143024B03EB901204
:101CA0001160704700100240064A02EB901109686B
:101CB00000F01F0301229A409143024B03EB901264
:101CC0001160704700100240064A02EB901109684B
:101CD00000F01F0301229A401143024B03EB9012C4
:101CE000116070470010024008B52EE000F036FD8C
:101CF0001648006800F08AFC84B21DE0214614A05A
:101D0000FEF7F0FB002269461048006801F04AFB2C
:101D1000601E84B29DF80000BB280AD1124800F072
:101D20001BFF12A0FEF7DEFB0F4919A0FEF7DAFB3E
:101D300004E019A0FEF7D6FB002CDFD100BF642021
:101D400000F01CFE00F034FD00BFCFE724000020AF
:101D500072756E2074696D65206974656D73203DC0
:101D60002025640D0A000000D00000207461736B10
:101D70005F6E616D650972756E696E675F74696D1E
:101D80006509447574795F6379636C650D0A0000B9
:101D90002573090D0A000000556E61626C652074A0
:101DA0006F20747261636B206F7065726174696F0C
:101DB0006E616C20737461747573200D0A000000ED
:101DC0007CB5064600F0CAFC3B4801231A46009049
:101DD0003A4801683AA001F0D7FE3B49086008463E
:101DE000006818B939A0FEF77DFB02E03FA0FEF7BE
:101DF00079FB4748032100234FF48062CDE90010AE
:101E000044A1454801F0D8FB04461CB943A0FEF7A5
:101E100069FB02E049A0FEF765FB5048032100235F
:101E20004FF48062CDE900104DA14F4801F0C4FB92
:101E300004461CB94DA0FEF755FB02E053A0FEF787
:101E400051FB5A48032100234FF48062CDE9001072
:101E500057A15A4801F0B0FB04461CB958A0FEF740
:101E600041FB02E05FA0FEF73DFB67480421002331
:101E70000A02CDE9001065A1664801F09DFB044609
:101E80001CB965A0FEF72EFB02E06CA0FEF72AFB52
:101E900001F0D2FB05464FF0FF3000232A46012116
:101EA00000900948006801F0B5FE6D48006800F038
:101EB00093FD00F07DFC7CBD25040008140000208B
:101EC00054696D6572310000180000204661696C2C
:101ED000656420746F206372656174652074696D38
:101EE0006572315F7461736B200D0A0073756363F3
:101EF00065656420746F2063726561746520746920
:101F00006D6572315F7461736B200D0A0000000013
:101F1000040000206C656400310B00084661696CA8
:101F2000656420746F20637265617465206C6564FC
:101F3000207461736B200D0A0000000073756363E9
:101F400065656420746F20637265617465206C65DB
:101F500064207461736B200D0A00000008000020EB
:101F60006265657000000000110700084661696C39
:101F7000656420746F2063726561746520626565B5
:101F8000705F7461736B200D0A00000073756363EA
:101F900065656420746F2063726561746520626595
:101FA00065705F7461736B200D0A00000C000020E7
:101FB000696E74657272757074000000990A000889
:101FC0004661696C656420746F2063726561746535
:101FD00020696E746572727570745F7461736B20C2
:101FE0000D0A00007375636365656420746F206378
:101FF000726561746520696E746572727570745F64
:102000007461736B200D0A001000002072756E74ED
:10201000696D6500E91C00084661696C656420749F
:102020006F206372656174652072756E74696D6589
:102030005F7461736B200D0A0000000073756363A9
:1020400065656420746F20637265617465207275C4
:102050006E74696D655F7461736B200D0A0000001A
:102060000000002000200021334A126842F4803230
:10207000314B1A6000BF401C2F4A126802F4003135
:1020800019B94FF6FF729042F5D12B4A126802F44B
:1020900000320AB900BFFEE7274A5268264B5A6051
:1020A0001A4652685A601A46526842F480625A6070
:1020B0001A465268214B1A401F4B5A601A46526802
:1020C00042F424125A601A46D26A1D4B1A401A4B27
:1020D000DA621A46D26A1B4B1A43174BDA621A4667
:1020E000126842F080621A6000BF134A126802F060
:1020F0000062002AF9D0104A126842F080720E4B3A
:102100001A6000BF0C4A126802F00072002AF9D06F
:10211000094A526822F00302074B5A601A46526875
:1021200042F002025A6000BF034A526802F00802FD
:10213000002AF9D07047000000100240FFFFC0DF06
:1021400000F0FEFF3108010010B5FFF78BFF10BD56
:10215000042808D14FF0E021096941F004014FF053
:10216000E022116107E04FF0E021096921F004014C
:102170004FF0E0221161704710B56FF00400FFF7D7
:10218000E7FF0A4800680A49B0FBF1F00949087006
:102190000846007800EB4001C1EBC0104FF6FF711C
:1021A00001EAC0000449088010BD0000380000208A
:1021B00000127A002200002020000020016841F077
:1021C000800101607047016841F0010101607047C2
:1021D0000A888262294A904220D0B0F1804F1DD0F7
:1021E000274A90421AD0274A904217D0264A904256
:1021F00014D0264A904211D0254A90420ED0254A4A
:1022000090420BD0244A904208D0244A904205D0F4
:10221000234A904202D0234A90420FD1026822F012
:102220007002026002688B7803F060031A43026058
:1022300002680B7903F010031A4302608A68C262D5
:10224000194A90420CD0194A904209D0026822F4EF
:102250004072026002688B8903F440731A43026083
:10226000064A904202D0094A904201D18A7B026319
:10227000426942F00102426170470000002C0140B7
:102280000004004000080040000C00400034014001
:10229000004C014000500140005401400018004033
:1022A000001C0040002000400010004000140040CE
:1022B000C2680A43C2607047CA43026170470000A7
:1022C0002DE9F04704460D460027B846B9460026DA
:1022D0002A49601A8C4235D00CDC29482044E8B1E8
:1022E000B0F5806F1FD0B0F5006F21D0B0F5406F12
:1022F00032D122E0B0F5806F29D0B0F5404F03D045
:10230000B0F5784F28D104E00320FFF707FC07461B
:1023100023E00320FFF702FC07461EE00220FFF740
:10232000FDFB074619E00220FFF7F8FB074614E023
:102330000220FFF7F3FB07460FE00220FFF7EEFB5A
:1023400007460AE00220FFF7E9FB074605E0022006
:10235000FFF7E4FB074600E000BF00BF07EB5500B6
:10236000B0FBF5F64FF6F07006EA000806F00F092C
:1023700048EA0900A060BDE8F0870000007800404E
:1023800000BCFFBF10B50446206800F037F8D4E960
:102390000001FFF795FFA168206800F01BF9216993
:1023A000206800F005F96169206800F0EFF8A16984
:1023B000206800F0AFF8E169206800F0A1F804217E
:1023C000206800F0EBF80821206800F0F9F8206898
:1023D00000F082F8218C206800F0A6F8207B032210
:1023E0001146FEF79BFC10BD01464868C0F308008B
:1023F0007047C1F3080242607047000010B5044600
:102400003349601A8C424DD00CDC32482044E0B194
:10241000B0F5806F22D0B0F5006F31D0B0F5406FCD
:1024200052D136E0B0F5806F45D0B0F5404F03D0C3
:10243000B0F5784F48D11AE040F20E30FFF744FC77
:1024400040F20E30FFF730FC3FE040F21140FFF762
:102450003BFC40F21140FFF727FC36E040F212400F
:10246000FFF732FC40F21240FFF71EFC2DE041F670
:102470001850FFF729FC41F61850FFF715FC24E02F
:1024800040F21340FFF720FC40F21340FFF70CFC32
:102490001BE040F21440FFF717FC40F21440FFF736
:1024A00003FC12E041F61E60FFF70EFC41F61E60D1
:1024B000FFF7FAFB09E041F61F60FFF705FC41F664
:1024C0001F60FFF7F1FB00E000BF00BF10BD000080
:1024D0000078004000BCFFBFC16841F40051C160FA
:1024E000704710B5024602EB9110006801F01F041E
:1024F0000123A340184008B1012010BD0020FCE7D3
:10250000426922F400724261426901F400731A4385
:1025100042617047426922F480724261426901F46B
:1025200080731A434261704710B500EB9112126834
:1025300001F01F040123A3401A4300EB91131A601A
:1025400010BDC1F3044301229A40D24300EB9153E2
:102550001A60704770B5024600230024C1F3891049
:10256000105801F01F060125B54000EA050302EBF3
:1025700091500068C1F304460125B54000EA050406
:1025800014B10BB1012070BD0020FCE7C26822F439
:10259000C062C260C2680A43C2607047C26822F06B
:1025A0000402C260C26801F004031A43C2607047AB
:1025B000026922F44052026102690A4302617047D3
:1025C000C26822F00802C260C26801F008031A4320
:1025D000C2607047C26822F48052C260C2680A4377
:1025E000C260704701460A69D1E901309860D1E9BB
:1025F000010358605068884201D18868506000200B
:1026000008611068401E10601068704770B504467D
:1026100054B900BF202080F31188BFF34F8FBFF360
:102620006F8F00BF00BFFEE700F098F8A56B00F0C9
:10263000BFF8284670BD00002DE9F04105468846E8
:1026400016460024202700F099FB224800688045A8
:102650003AD300BF7F1E07EB87021F4B03EB8201BB
:1026600004EBC40205EB82000122FEF707FF0444DD
:10267000002FEFD104EBC40105EB810002221749C2
:102680000968FEF7FBFE044404EBC40105EB81007E
:10269000022213490968FEF7F1FE044404EBC40169
:1026A00005EB810004220F49FEF7E8FE044404EB29
:1026B000C40105EB810003220B49FEF7DFFE044451
:1026C00016B10A480068306001F0A2F92046BDE862
:1026D000F08100004C000020D028002040000020A5
:1026E000440000208C2B0020A02B00203400002070
:1026F00000F1080141604FF0FF31816000F10801F5
:10270000C1600161002101607047002101617047D3
:1027100010B502460B685C1C0CB9106907E002F1A9
:10272000080000E04068446824689C42FAD9446884
:102730004C604C68A160886041600A611468641C48
:10274000146010BD42684A6093688B60936859605A
:102750009160086103685B1C0360704700BF202024
:1027600080F31188BFF34F8FBFF36F8F00BF0E4808
:102770000068401C0C49086008460068012812D116
:102780000A480068C0B208B9012000E0002050B932
:1027900000BF202080F31188BFF34F8FBFF36F8FEE
:1027A00000BF00BFFEE77047B800002004ED00E066
:1027B0000D48006850B900BF202080F31188BFF396
:1027C0004F8FBFF36F8F00BF00BFFEE70648006862
:1027D000401E054908600846006820B9002080F3C3
:1027E000118800BF00BF7047B800002070B50646D2
:1027F0003546002E44D0083D2C46224960680968C1
:10280000084008B1012000E0002050B900BF20209E
:1028100080F31188BFF34F8FBFF36F8F00BF00BFEE
:10282000FEE7206808B9012000E0002050B900BF91
:10283000202080F31188BFF34F8FBFF36F8F00BF4D
:1028400000BFFEE70F49606809680840C0B1206812
:10285000B0B90C49606809688843606000F08EFA7E
:102860000949606809680844074908602046FEF77E
:1028700089FD06480068401C0449086001F0C8F85A
:1028800070BD0000B4000020A4000020B0000020B3
:1028900000204FF0E0210861886106480068C821E7
:1028A000B0FBF1F0401E4FF0E021486107200861C5
:1028B000704700003800002070B5FDF7C9FC0446E1
:1028C000102C16D304F1E02090F8F053154800784E
:1028D000854201DB012000E0002050B900BF20202C
:1028E00080F31188BFF34F8FBFF36F8F00BF00BF1E
:1028F000FEE70D48006800F4E0600C490968884272
:1029000001D8012000E0002050B900BF202080F352
:102910001188BFF34F8FBFF36F8F00BF00BFFEE77B
:1029200070BD0000BC0000200CED00E0C0000020E5
:102930002DE9F04105460E4617462C46FFF70EFFDF
:1029400094F94400401C10B9002084F8440094F924
:102950004500401C10B9002084F84500FFF728FF0F
:10296000A06B28B93A46314604F1240000F084F9FE
:102970002046FEF7AEFFBDE8F081000070B50446CA
:102980000025D4B11248006808B9012000E00020F9
:1029900050B900BF202080F31188BFF34F8FBFF3E1
:1029A0006F8F00BF00BFFEE700F0E8F9002120466E
:1029B000FEF714FA01F02CF805463DB94FF08050AF
:1029C00004490860BFF34F8FBFF36F8F70BD0000E5
:1029D0007800002004ED00E070B50546FFF7BEFE6C
:1029E00015B93248006800E028460446201DFFF76C
:1029F000F9FD78B9E06A00EB80002D4951F820001C
:102A000040B994F82C10012088402A490968814374
:102A100028480160A06A18B104F11800FFF7E2FD30
:102A200025480068401C244908602048006884420A
:102A300009D1211D2148FFF785FE21480068401C6F
:102A40001F49086006E01F480068401E1D490860D5
:102A5000FEF7B6FEFFF7ACFE14480068844202D0D1
:102A60002046FEF735FB18480068E8B10F480068BB
:102A7000844219D11548006808B9012000E00020FF
:102A800050B900BF202080F31188BFF34F8FBFF3F0
:102A90006F8F00BF00BFFEE74FF080500C49086009
:102AA000BFF34F8FBFF36F8F70BD00003C0000205D
:102AB000D028002054000020680000208C2B00202B
:102AC000480000204C000020580000207800002022
:102AD00004ED00E02DE9F04107460C4690461E4605
:102AE00017B91C48006800E038460546256005F126
:102AF00034006060E86A2061286BE061286CA060A7
:102B0000A86C6061286DA061052E12D01148006884
:102B1000854202D1002020730FE02673032E0CD1D2
:102B200000F02CF9A86A08B10220207300F070FFB1
:102B300003E02846FDF734FE2073B8F1000F04D0FF
:102B4000286BFEF78DFE208401E000202084BDE884
:102B5000F08100003C0000202DE9F84306460020EB
:102B600030702748D0F800800146096801EBC101A8
:102B70008800FEF70BFF0546002D3FD06A46414610
:102B80002846FFF759FD804664210098B0FBF1F01C
:102B90000090009800282ED000242AE004EBC40006
:102BA00005EB800080690099B0FBF1F704EBC400ED
:102BB00005EB800041683046FEF7D3FE064657B16C
:102BC00004EBC40005EB80003B460EA18269304651
:102BD000FDF798FC08E004EBC40005EB80000CA1B5
:102BE00082693046FDF78EFC3046FDF76BFB0644EC
:102BF000641C4445D2D32846FFF7F8FDBDE8F883AE
:102C00004C0000200925750909257525250D0A00A8
:102C100009257509093C3125250D0A000349096874
:102C200001600349096841607047000064000020AA
:102C3000500000200120014908607047600000201A
:102C400070B504460D4654B900BF202080F31188AA
:102C5000BFF34F8FBFF36F8F00BF00BFFEE7054884
:102C6000016818312046FFF753FD01212846FEF781
:102C7000B5F870BD3C00002070B504460E46154600
:102C800054B900BF202080F31188BFF34F8FBFF3EA
:102C90006F8F00BF00BFFEE760680F490968C86119
:102CA0000D49826809680A620B490968183182680F
:102CB00051600949096818318160074909688C62C7
:102CC0002168491C21600DB14FF0FF36294630467E
:102CD000FEF784F870BD00003C0000201CB51F48C2
:102CE00000210B464FF48072CDE900101CA11E4854
:102CF00000F062FC0446012C02D100F061FF0446A2
:102D0000012C17D100BF202080F31188BFF34F8F13
:102D1000BFF36F8F00BF4FF0FF30144908600120F0
:102D200013490860002013490860FDF72DFD00F0ED
:102D300093F810E0601C08B1012000E0002050B9B9
:102D400000BF202080F31188BFF34F8FBFF36F8F38
:102D500000BF00BFFEE7084800681CBD70000020EF
:102D600049444C4500000000891100086C00002017
:102D70005800002050000020740000200248006825
:102D8000401C014908607047780000202A4800680C
:102D900018B10120294908604CE00020274908604B
:102DA00027480068274908600846006826490968DE
:102DB00088420BD92549096801F15000096D214A63
:102DC0001268214B1B68D21A114401601D4800682B
:102DD0001D4908601E480068B0FA80F0C0F11F016C
:102DE00001EB81001B4A52F8200008B1012000E0ED
:102DF000002050B900BF202080F31188BFF34F8F0F
:102E0000BFF36F8F00BF00BFFEE701EB8102114BE4
:102E100003EB820042685268426000F10802436896
:102E2000934202D14268526842604268D268074BBE
:102E30001A6000BF7047000078000020600000208A
:102E400034000020800000207C0000203C00002096
:102E500054000020D02800201CB5384908460078CE
:102E60000190FF200A4610700846007800909DF8F7
:102E7000000000F0F0009DF80020904201D10120F8
:102E800000E0002050B900BF202080F31188BFF37C
:102E90004F8FBFF36F8F00BF00BFFEE79DF80000AC
:102EA00000F02000264A10700720264A106009E032
:102EB00024480068401E234A10609DF80000400628
:102EC000000E00909DF8000000F080008028EFD0F8
:102ED0001C480068C0F10700042801D1012000E06F
:102EE000002050B900BF202080F31188BFF34F8F1E
:102EF000BFF36F8F00BF00BFFEE7124800680002FB
:102F0000104A10601046008800F4E06010600B4A20
:102F1000019810700C48006840F470000A4908607D
:102F20000846006840F070400860FFF7B1FC0020E0
:102F300006490860FDF756F900201CBD00E400E0DA
:102F4000BC000020C000002020ED00E0B800002000
:102F50002DE9F84305460E4617460024E5B1601EEC
:102F6000B0FBF5F0B04217D305FB06F010F1550F9A
:102F700012D805FB06F808F15400FEF707FD0446D9
:102F8000B4B1A14609F154093B464A4631462846A8
:102F90000094FEF70DF90BE054B900BF202080F338
:102FA0001188BFF34F8FBFF36F8F00BF00BFFEE7E5
:102FB0002046BDE8F88300002DE9F04105460E46A5
:102FC00001272C4654B900BF202080F31188BFF39D
:102FD0004F8FBFF36F8F00BF00BFFEE7002C42D0C2
:102FE000E06B00283FD04FF0FF31E06BB1FBF0F019
:102FF000216C884237D3FFF7B1FBD4E90F12206868
:1030000001FB0200A0600020A06320686060E06B0C
:10301000401E226C216800FB0211E160FF2084F851
:10302000440084F845009EB9206908B9012000E0F9
:103030000020A8B904F1100000F05AFC80B14FF054
:10304000805013490860BFF34F8FBFF36F8F07E0C5
:1030500004F11000FFF74CFB04F12400FFF748FBDC
:10306000FFF7A6FB00E000270FB1012000E00020E1
:1030700050B900BF202080F31188BFF34F8FBFF3FA
:103080006F8F00BF00BFFEE73846BDE8F08100004B
:1030900004ED00E02DE9FF4782B0064688461D4654
:1030A0004FF00009344654B900BF202080F3118846
:1030B000BFF34F8FBFF36F8F00BF00BFFEE7B8F1C4
:1030C000000F01D1206C08B9012000E0002050B9A8
:1030D00000BF202080F31188BFF34F8FBFF36F8FA5
:1030E00000BF00BFFEE7022D02D1E06B012801D135
:1030F000012000E0002050B900BF202080F311889B
:10310000BFF34F8FBFF36F8F00BF00BFFEE700F02C
:1031100083FA08B9049808B9012000E0002050B9EA
:1031200000BF202080F31188BFF34F8FBFF36F8F54
:1031300000BF00BFFEE700BFFFF710FBA06BE16B15
:10314000884201D3022D3ED1D4F838A02A46414608
:103150002046FDF77EFF0746A06C88B1022D02D104
:10316000BAF1000F29D12046FEF7BDF928B34FF080
:1031700080503D490860BFF34F8FBFF36F8F1CE055
:10318000606A08B9012000E0002068B904F1240059
:1031900000F0AEFB88B14FF0805033490860BFF3B8
:1031A0004F8FBFF36F8F08E03FB14FF080502E4933
:1031B0000860BFF34F8FBFF36F8FFFF7F9FA01205D
:1031C00006B0BDE8F087049818B9FFF7F1FA0020BF
:1031D000F6E7B9F1000F04D16846FFF71FFD4FF085
:1031E0000109FFF7E5FAFFF7C9FDFFF7B7FA94F910
:1031F0004400401C10B9002084F8440094F94500B4
:10320000401C10B9002084F84500FFF7D1FA04A94A
:10321000684600F07BF9F8B92046FEF720F9A8B11E
:1032200004F110000499FFF70BFD2046FEF751FB57
:1032300000F0EEFB00287FF47FAF4FF080500A498A
:103240000860BFF34F8FBFF36F8F75E72046FEF71F
:1032500040FB00F0DDFB6FE72046FEF73AFB00F095
:10326000D7FB0020ACE7000004ED00E02DE9F84FAB
:1032700080468B4615461E46444654B900BF202062
:1032800080F31188BFF34F8FBFF36F8F00BF00BF74
:10329000FEE7BBF1000F01D1206C08B9012000E06E
:1032A000002050B900BF202080F31188BFF34F8F5A
:1032B000BFF36F8F00BF00BFFEE7022E02D1E06BAD
:1032C000012801D1012000E0002050B900BF2020DA
:1032D00080F31188BFF34F8FBFF36F8F00BF00BF24
:1032E000FEE7FFF7E9FA00BF2021EFF3118081F339
:1032F0001188BFF34F8FBFF36F8F00BF0746A06BDE
:10330000E16B884201D3022E42D194F945A0A06B13
:103310000090324659462046FDF79BFE0AF1010017
:10332000E0B9A06C58B1022E01D1009868BB2046CC
:10333000FEF7D9F848B345B30120286025E0606A5C
:1033400008B9012000E00020F8B904F1240000F0E1
:10335000CFFAD0B1CDB10120286016E0BAF17F0FCD
:1033600001D0012000E0002050B900BF202080F3F0
:103370001188BFF34F8FBFF36F8F00BF00BFFEE711
:103380000AF1010040B284F845004FF0010901E064
:103390004FF0000900BF87F3118800BF4846BDE821
:1033A000F88F00002DE9F74183B005460E464FF037
:1033B00000082C4654B900BF202080F31188BFF3C9
:1033C0004F8FBFF36F8F00BF00BFFEE70EB9206CB9
:1033D00008B9012000E0002050B900BF202080F390
:1033E0001188BFF34F8FBFF36F8F00BF00BFFEE7A1
:1033F00000F012F908B9059808B9012000E0002092
:1034000050B900BF202080F31188BFF34F8FBFF366
:103410006F8F00BF00BFFEE700BFFFF79FF9A76BEC
:10342000F7B131462046FDF7FFFD781EA063206905
:1034300008B9012000E0002060B904F1100000F09C
:1034400057FA38B14FF080502F490860BFF34F8FC3
:10345000BFF36F8FFFF7ACF9012006B0BDE8F08134
:10346000059818B9FFF7A4F90020F6E7B8F1000FA6
:1034700004D101A8FFF7D2FB4FF00108FFF798F93C
:10348000FFF77CFCFFF76AF994F94400401C10B97F
:10349000002084F8440094F94500401C10B9002035
:1034A00084F84500FFF784F905A901A800F02EF87B
:1034B000F0B92046FDF7C6FFA0B104F1240005993C
:1034C000FFF7BEFB2046FEF704FA00F0A1FA002841
:1034D000A3D14FF080500C490860BFF34F8FBFF36A
:1034E0006F8F9AE72046FEF7F4F900F091FA94E71F
:1034F0002046FEF7EEF900F08BFA2046FDF7A2FF1A
:1035000000288AD00020A8E704ED00E070B5064648
:103510000C4656B900BF202080F31188BFF34F8FAF
:10352000BFF36F8F00BF00BFFEE754B900BF20207C
:1035300080F31188BFF34F8FBFF36F8F00BF00BFC1
:10354000FEE7FFF70BF9194802687068131A18486C
:10355000006890F8590030B100201549096881F8D9
:10356000590001251EE02068401C08B9002519E01B
:10357000104930680968884206D07068904203D8C4
:103580000125002020600DE02068984207D92068BE
:10359000C01A20603046FFF741FB002502E0002002
:1035A00020600125FFF704F9284670BD5000002077
:1035B0003C000020640000202DE9FF4F85B08046CC
:1035C00089461746DDE912ABB800FEF7DFF906467B
:1035D00056B15C20FEF7DAF904460CB1266304E02C
:1035E0003046FFF703F900E000247CB10020CDE96C
:1035F00000ABCDE902403A4649464046089BFDF7FC
:10360000EEFD2046FDF750FC012501E04FF0FF35AF
:10361000284609B0BDE8F08F0549096809B90120BD
:1036200005E00449096809B9022000E0002070475C
:103630005800002078000020014908687047000009
:10364000500000202DE9F0414FF00008614800686B
:1036500000287DD160480068451C5F48056015BBA7
:103660005E480068006808B9012000E0002050B9F9
:1036700000BF202080F31188BFF34F8FBFF36F8FFF
:1036800000BF00BFFEE7554807685548006853492A
:1036900008605348076053480068401C514908605F
:1036A000FEF78EF800BF50480068854277D300BF10
:1036B0004A480068006808B9012000E0002020B1F5
:1036C0004FF0FF304849086068E044480068C0682F
:1036D000C4686668B54202D2434806605EE060692D
:1036E000D4E902128A60D4E902214A60211D4268AD
:1036F0008A4201D1E1684160002262610168491E8D
:103700000160A06A98B1A06AD4E907128A60D4E97E
:1037100007214A6004F1180142688A4201D1216AF6
:1037200041600022A2620168491E016000BF94F856
:103730002C10012088402D49096808432B49086056
:10374000E16A01EB81012A4A02EB8101486800E04D
:1037500037E0A0608268E260211D8268516081606C
:10376000E16A01EB8101224A02EB81026261E16AB6
:1037700001EB81011E4A52F82110491CE26A02EB5A
:1037800082021B4B43F822101A49E06A0968C96A91
:1037900088428DD34FF001088AE700E000BF15484A
:1037A0000068C06A00EB8000114951F82000012830
:1037B00001D94FF001081048006808B14FF0010826
:1037C00004E00E480068401C0C4908604046BDE813
:1037D000F081000078000020500000204000002010
:1037E00044000020640000206C00002054000020F1
:1037F000D02800203C000020600000205C00002059
:1038000070B505462C460026002D68D03548006866
:10381000844201D1012000E0002050B900BF2020E7
:1038200080F31188BFF34F8FBFF36F8F00BF00BFCE
:10383000FEE7E06C50B900BF202080F31188BFF391
:103840004F8FBFF36F8F00BF00BFFEE7E06C401EDD
:10385000E064A16CE06A884241D0E06C00283ED16F
:10386000201DFEF7BFFE40B994F82C1001208840BF
:103870001D49096881431C480160A06CE062E06A50
:10388000C0F12000A06194F82C1001208840164956
:103890000968084314490860E16A01EB8101134A91
:1038A00002EB81014868A0608268E260211D8268A5
:1038B00051608160E16A01EB81010C4A02EB8102F7
:1038C0006261E16A01EB8101084A52F82110491C4A
:1038D000E26A02EB8202054B43F8221001263046D1
:1038E00070BD00003C00002054000020D0280020C3
:1038F00070B50346D868C16851B900BF202080F375
:103900001188BFF34F8FBFF36F8F00BF00BFFEE77B
:10391000886AD1E90745A560D1E90754656001F1DE
:1039200018044568A54201D10C6A446000258D62E7
:103930000468641E04603048006800283DD148696E
:10394000D1E90245A560D1E9025465600C1D4568C6
:10395000A54201D1CC68446000254D610468641E15
:10396000046091F82C400120A040244C246820439E
:10397000224C2060CC6A04EB8404214D05EB8404C6
:10398000606888608568CD600C1D85686C608460A7
:10399000CC6A04EB84041A4D05EB84054D61CC6AB6
:1039A00004EB8404164D55F82440641CCD6A05EBE5
:1039B0008505134E46F8254010E0124C6068C8613A
:1039C00085680D6201F1180485686C6084600D4D96
:1039D0008D622C462468641C2C6000BF0A4CC86AA7
:1039E0002468E46AA04204D901220120074C206027
:1039F00000E00022104670BD780000205400002036
:103A0000D0280020782B00203C00002060000020FF
:103A100070B5002400265348006850B900BF20202C
:103A200080F31188BFF34F8FBFF36F8F00BF00BFCC
:103A3000FEE7FEF793FE4B480068401E49490860C8
:103A40000846006800287DD147480068002879D0E2
:103A50005BE04648C068C468A06AD4E907128A607F
:103A6000D4E907214A6004F1180142688A4201D171
:103A7000216A41600022A2620168491E01606069FA
:103A8000D4E902128A60D4E902214A60211D426809
:103A90008A4201D1E1684160002262610168491EE9
:103AA000016094F82C1001208840314909680843CE
:103AB0002F490860E16A01EB81012E4A02EB810186
:103AC0004868A0608268E260211D82685160816060
:103AD000E16A01EB8101274A02EB81026261E16A3E
:103AE00001EB8101234A52F82110491CE26A02EBE2
:103AF0008202204B43F822101F49E06A0968C96A14
:103B0000884202D301201D4908601848006808B99E
:103B1000012000E0002000289BD00CB1FDF750FEF2
:103B20001748056865B100BFFFF78CFD10B1012093
:103B3000124908606D1E002DF6D100201049086062
:103B40000E4800E009E0006838B1012630070D4951
:103B50000860BFF34F8FBFF36F8FFEF729FE30462B
:103B600070BD0000780000204C000020782B002061
:103B700054000020D02800203C00002060000020DD
:103B80005C00002004ED00E02DE9FC4705460E46F0
:103B900017469846DDF828902C20FDF7F7FE0446DE
:103BA00054B1002084F8280043463A46314628465E
:103BB000CDE90094FDF786FB2046BDE8FC870000B8
:103BC0001CB50024FDF7E6F90D48006850B10D481A
:103BD000022100230A02CDE900100BA10C48FFF7D7
:103BE000EBFC044654B900BF202080F31188BFF3DA
:103BF0004F8FBFF36F8F00BF00BFFEE720461CBD95
:103C00008C00002090000020546D722053766300D9
:103C1000B91800082DE9FF4704460D4616461F4611
:103C2000DDF830804FF0000954B900BF202080F348
:103C30001188BFF34F8FBFF36F8F00BF00BFFEE748
:103C40001448006810B3009501960294062D15DA09
:103C5000FFF7E2FC022808D10023424669460D48DE
:103C60000068FFF717FA814610E000231A466946FC
:103C700008480068FFF70EFA814607E000233A463D
:103C8000694604480068FFF7F1FA8146484604B0E7
:103C9000BDE8F0878C000020B83C00080000002040
:103CA000D00000002C050008883D0008D00000204E
:103CB000106B01003C05000800000000000000003F
:103CC0000000000000000000000000006400000090
:103CD00000000000000000000000000100000000E3
:103CE00000000000000000000000000000000000D4
:103CF000000E270700000000000000000000000088
:103D000000000000000000000000000000000000B3
:103D100000000000000000000000000000000000A3
:103D20000000000000000000000000001F00000074
:103D30000000000000000000000000000000000083
:103D40000000000000000000000000000000000073
:103D50000000000000000000000000000000000063
:103D60000000000000000000000000000000000053
:103D7000AAAAAAAA0000000000000000000000009B
:083D800000000000000000003B
:04000005080001A945
:00000001FF
